{
  "address": "0x46387Eb5a91DA39b83eB55B337beeCa67FFcbb34",
  "abi": [
    {
      "inputs": [
        {
          "internalType": "address",
          "name": "_owner",
          "type": "address"
        },
        {
          "internalType": "address",
          "name": "_charity",
          "type": "address"
        },
        {
          "internalType": "address",
          "name": "_whitelistSignerAddress",
          "type": "address"
        },
        {
          "internalType": "address",
          "name": "_impressionTokenAddress",
          "type": "address"
        }
      ],
      "stateMutability": "nonpayable",
      "type": "constructor"
    },
    {
      "anonymous": false,
      "inputs": [
        {
          "indexed": true,
          "internalType": "uint256",
          "name": "requestId",
          "type": "uint256"
        },
        {
          "indexed": true,
          "internalType": "address",
          "name": "from",
          "type": "address"
        },
        {
          "indexed": true,
          "internalType": "address",
          "name": "to",
          "type": "address"
        },
        {
          "indexed": false,
          "internalType": "uint256",
          "name": "amount",
          "type": "uint256"
        },
        {
          "indexed": false,
          "internalType": "bytes32",
          "name": "msgHash",
          "type": "bytes32"
        }
      ],
      "name": "MessageRequestCreated",
      "type": "event"
    },
    {
      "anonymous": false,
      "inputs": [
        {
          "indexed": true,
          "internalType": "address",
          "name": "previousOwner",
          "type": "address"
        },
        {
          "indexed": true,
          "internalType": "address",
          "name": "newOwner",
          "type": "address"
        }
      ],
      "name": "OwnershipTransferred",
      "type": "event"
    },
    {
      "inputs": [
        {
          "internalType": "address[]",
          "name": "_to",
          "type": "address[]"
        },
        {
          "internalType": "uint256[]",
          "name": "_amount",
          "type": "uint256[]"
        },
        {
          "internalType": "bytes32",
          "name": "_msgHash",
          "type": "bytes32"
        }
      ],
      "name": "batchRequestMessage",
      "outputs": [],
      "stateMutability": "nonpayable",
      "type": "function"
    },
    {
      "inputs": [],
      "name": "charityFund",
      "outputs": [
        {
          "internalType": "address",
          "name": "",
          "type": "address"
        }
      ],
      "stateMutability": "view",
      "type": "function"
    },
    {
      "inputs": [],
      "name": "charityParam",
      "outputs": [
        {
          "internalType": "uint256",
          "name": "",
          "type": "uint256"
        }
      ],
      "stateMutability": "view",
      "type": "function"
    },
    {
      "inputs": [
        {
          "internalType": "uint256",
          "name": "_requestId",
          "type": "uint256"
        },
        {
          "internalType": "bytes",
          "name": "_signature",
          "type": "bytes"
        },
        {
          "internalType": "bytes",
          "name": "_messageHash",
          "type": "bytes"
        }
      ],
      "name": "claimMessage",
      "outputs": [],
      "stateMutability": "nonpayable",
      "type": "function"
    },
    {
      "inputs": [
        {
          "internalType": "uint256",
          "name": "_requestId",
          "type": "uint256"
        }
      ],
      "name": "getMessageRequest",
      "outputs": [
        {
          "components": [
            {
              "internalType": "address",
              "name": "from",
              "type": "address"
            },
            {
              "internalType": "address",
              "name": "to",
              "type": "address"
            },
            {
              "internalType": "uint256",
              "name": "amount",
              "type": "uint256"
            }
          ],
          "internalType": "struct ImpressionStake.MessageRequest",
          "name": "",
          "type": "tuple"
        }
      ],
      "stateMutability": "view",
      "type": "function"
    },
    {
      "inputs": [],
      "name": "impressionTokenAddress",
      "outputs": [
        {
          "internalType": "contract IERC20",
          "name": "",
          "type": "address"
        }
      ],
      "stateMutability": "view",
      "type": "function"
    },
    {
      "inputs": [],
      "name": "owner",
      "outputs": [
        {
          "internalType": "address",
          "name": "",
          "type": "address"
        }
      ],
      "stateMutability": "view",
      "type": "function"
    },
    {
      "inputs": [],
      "name": "renounceOwnership",
      "outputs": [],
      "stateMutability": "nonpayable",
      "type": "function"
    },
    {
      "inputs": [],
      "name": "requestId",
      "outputs": [
        {
          "internalType": "uint256",
          "name": "",
          "type": "uint256"
        }
      ],
      "stateMutability": "view",
      "type": "function"
    },
    {
      "inputs": [
        {
          "internalType": "address",
          "name": "_to",
          "type": "address"
        },
        {
          "internalType": "uint256",
          "name": "_amount",
          "type": "uint256"
        },
        {
          "internalType": "bytes32",
          "name": "_msgHash",
          "type": "bytes32"
        }
      ],
      "name": "requestMessage",
      "outputs": [],
      "stateMutability": "nonpayable",
      "type": "function"
    },
    {
      "inputs": [
        {
          "internalType": "address",
          "name": "_charityFund",
          "type": "address"
        }
      ],
      "name": "setCharity",
      "outputs": [],
      "stateMutability": "nonpayable",
      "type": "function"
    },
    {
      "inputs": [
        {
          "internalType": "uint256",
          "name": "_charityParam",
          "type": "uint256"
        }
      ],
      "name": "setCharityParam",
      "outputs": [],
      "stateMutability": "nonpayable",
      "type": "function"
    },
    {
      "inputs": [
        {
          "internalType": "uint256",
          "name": "_cost",
          "type": "uint256"
        }
      ],
      "name": "setUserCost",
      "outputs": [],
      "stateMutability": "nonpayable",
      "type": "function"
    },
    {
      "inputs": [
        {
          "internalType": "address",
          "name": "signer",
          "type": "address"
        }
      ],
      "name": "setWhitelistSignerAddress",
      "outputs": [],
      "stateMutability": "nonpayable",
      "type": "function"
    },
    {
      "inputs": [
        {
          "internalType": "address",
          "name": "newOwner",
          "type": "address"
        }
      ],
      "name": "transferOwnership",
      "outputs": [],
      "stateMutability": "nonpayable",
      "type": "function"
    },
    {
      "inputs": [
        {
          "internalType": "address",
          "name": "",
          "type": "address"
        }
      ],
      "name": "userCost",
      "outputs": [
        {
          "internalType": "uint256",
          "name": "",
          "type": "uint256"
        }
      ],
      "stateMutability": "view",
      "type": "function"
    }
  ],
  "transactionHash": "0xb4bcb502f6e62914f2e2cf64a5fa6285c6c83b4f988227b9420dde3557b11b62",
  "args": [
    "0x71AF39b5ec816eF4853952f42C60bCf8DD99C8CE",
    "0x43F7D84e346584621AeD8eCE27C7ccd1659665E6",
    "0xF25f9E09344DCeC110addF1603b6c9e650883af5",
    "0xb1151AAC9eA4F4151779a57e030119bbE3E0D5d1"
  ],
  "numDeployments": 3,
  "solcInputHash": "66a7a1477781a67a021b9f38c1ccdf19",
  "bytecode": "0x60806040523480156200001157600080fd5b50604051620016613803806200166183398101604081905262000034916200022b565b6200003f3362000085565b600280546001600160a01b0319166001600160a01b0383161790556200006583620000d5565b620000708262000101565b6200007b846200012d565b5050505062000288565b600080546001600160a01b038381166001600160a01b0319831681178455604051919092169283917f8be0079c531659141344cd1fd0a4f28419497f9722a3daafe3b4186f6b6457e09190a35050565b620000df620001b0565b600380546001600160a01b0319166001600160a01b0392909216919091179055565b6200010b620001b0565b600180546001600160a01b0319166001600160a01b0392909216919091179055565b62000137620001b0565b6001600160a01b038116620001a25760405162461bcd60e51b815260206004820152602660248201527f4f776e61626c653a206e6577206f776e657220697320746865207a65726f206160448201526564647265737360d01b60648201526084015b60405180910390fd5b620001ad8162000085565b50565b6000546001600160a01b031633146200020c5760405162461bcd60e51b815260206004820181905260248201527f4f776e61626c653a2063616c6c6572206973206e6f7420746865206f776e6572604482015260640162000199565b565b80516001600160a01b03811681146200022657600080fd5b919050565b600080600080608085870312156200024257600080fd5b6200024d856200020e565b93506200025d602086016200020e565b92506200026d604086016200020e565b91506200027d606086016200020e565b905092959194509250565b6113c980620002986000396000f3fe608060405234801561001057600080fd5b50600436106100ff5760003560e01c80639abb86fd11610097578063c47a03a011610066578063c47a03a014610276578063f2fde38b14610296578063f504764d146102a9578063fb6f71a3146102bc57600080fd5b80639abb86fd1461022a578063a56a95101461023d578063b1f2143914610250578063bd7479501461026357600080fd5b8063715018a6116100d3578063715018a6146101e957806377e1a9fc146101f357806383c7ede4146102065780638da5cb5b1461021957600080fd5b80626d6cae1461010457806305d43f8a146101205780633494fb6314610129578063591f19f5146101be575b600080fd5b61010d60045481565b6040519081526020015b60405180910390f35b61010d60055481565b61018e610137366004610fec565b60408051606080820183526000808352602080840182905292840181905293845260068252928290208251938401835280546001600160a01b03908116855260018201541691840191909152600201549082015290565b6040805182516001600160a01b039081168252602080850151909116908201529181015190820152606001610117565b6002546101d1906001600160a01b031681565b6040516001600160a01b039091168152602001610117565b6101f16102cf565b005b6003546101d1906001600160a01b031681565b6101f1610214366004611021565b6102e3565b6000546001600160a01b03166101d1565b6101f16102383660046110f7565b6105cc565b6101f161024b3660046111a9565b610975565b6101f161025e366004610fec565b610a77565b6101f1610271366004610fec565b610ae3565b61010d61028436600461121d565b60076020526000908152604090205481565b6101f16102a436600461121d565b610b67565b6101f16102b736600461121d565b610be0565b6101f16102ca36600461121d565b610c0a565b6102d7610c34565b6102e16000610c8e565b565b33321461030b5760405162461bcd60e51b81526004016103029061123f565b60405180910390fd5b6001600160a01b0383166103715760405162461bcd60e51b815260206004820152602760248201527f496d7072657373696f6e5374616b653a20746f20616464726573732063616e6e60448201526606f7420626520360cc1b6064820152608401610302565b6001600160a01b0383166000908152600760205260409020546103f05760405162461bcd60e51b815260206004820152603160248201527f496d7072657373696f6e5374616b653a207573657220636f7374206d75737420604482015270062652067726561746572207468616e203607c1b6064820152608401610302565b6001600160a01b03831660009081526007602052604090205482101561047e5760405162461bcd60e51b815260206004820152603a60248201527f496d7072657373696f6e5374616b653a20616d6f756e74206d7573742062652060448201527f67726561746572207468616e20726563656976657220636f73740000000000006064820152608401610302565b60008160405160200161049391815260200190565b60408051601f198184030181528282528051602091820120606084018352338085526001600160a01b038981168487019081528686018a81526000858152600690965294869020965187549083166001600160a01b03199182161788559051600188018054918416919092161790559251600295860155935492516323b872dd60e01b8152600481019490945230602485015260448401879052935016906323b872dd906064016020604051808303816000875af1158015610559573d6000803e3d6000fd5b505050506040513d601f19601f8201168201806040525081019061057d9190611276565b5060408051848152602081018490526001600160a01b03861691339184917f7d32d1ba1cfb349f1b32677a07b6da6edc6d1068f1c2e7184146055d3f5a0779910160405180910390a450505050565b3332146105eb5760405162461bcd60e51b81526004016103029061123f565b600083815260066020908152604091829020825160608101845281546001600160a01b039081168252600183015416928101839052600290910154928101929092526106915760405162461bcd60e51b815260206004820152602f60248201527f496d7072657373696f6e5374616b653a206d657373616765207265717565737460448201526e08191bd95cc81b9bdd08195e1a5cdd608a1b6064820152608401610302565b60008160400151116106fe5760405162461bcd60e51b815260206004820152603060248201527f496d7072657373696f6e5374616b653a206d657373616765207265717565737460448201526f08185b1c9958591e4818db185a5b595960821b6064820152608401610302565b60008482602001518460405160200161071993929190611298565b60405160208183030381529060405280519060200120905060006107948561078e846040517f19457468657265756d205369676e6564204d6573736167653a0a3332000000006020820152603c8101829052600090605c01604051602081830303815290604052805190602001209050919050565b90610cde565b6001549091506001600160a01b038083169116146107ff5760405162461bcd60e51b815260206004820152602260248201527f496d7072657373696f6e5374616b653a20696e76616c6964207369676e617475604482015261726560f01b6064820152608401610302565b60025460208401516005546001600160a01b039092169163a9059cbb919060649061082a9082611302565b87604001516108399190611315565b610843919061132c565b6040516001600160e01b031960e085901b1681526001600160a01b03909216600483015260248201526044016020604051808303816000875af115801561088e573d6000803e3d6000fd5b505050506040513d601f19601f820116820180604052508101906108b29190611276565b5060025460035460055460408601516001600160a01b039384169363a9059cbb9316916064916108e29190611315565b6108ec919061132c565b6040516001600160e01b031960e085901b1681526001600160a01b03909216600483015260248201526044016020604051808303816000875af1158015610937573d6000803e3d6000fd5b505050506040513d601f19601f8201168201806040525081019061095b9190611276565b505050600093845250506006602052506040812060020155565b3332146109945760405162461bcd60e51b81526004016103029061123f565b838214610a095760405162461bcd60e51b815260206004820152603d60248201527f496d7072657373696f6e5374616b653a20746f20616e6420616d6f756e74206160448201527f7272617973206d757374206265207468652073616d65206c656e6774680000006064820152608401610302565b60005b84811015610a6f57610a5d868683818110610a2957610a2961134e565b9050602002016020810190610a3e919061121d565b858584818110610a5057610a5061134e565b90506020020135846102e3565b80610a6781611364565b915050610a0c565b505050505050565b60008111610ad15760405162461bcd60e51b815260206004820152602160248201527f496d7072657373696f6e5374616b653a20636f73742063616e6e6f74206265206044820152600360fc1b6064820152608401610302565b33600090815260076020526040902055565b610aeb610c34565b6064811115610b625760405162461bcd60e51b815260206004820152603960248201527f496d7072657373696f6e5374616b653a206368617269747920706172616d206360448201527f616e6e6f742062652067726561746572207468616e20313030000000000000006064820152608401610302565b600555565b610b6f610c34565b6001600160a01b038116610bd45760405162461bcd60e51b815260206004820152602660248201527f4f776e61626c653a206e6577206f776e657220697320746865207a65726f206160448201526564647265737360d01b6064820152608401610302565b610bdd81610c8e565b50565b610be8610c34565b600180546001600160a01b0319166001600160a01b0392909216919091179055565b610c12610c34565b600380546001600160a01b0319166001600160a01b0392909216919091179055565b6000546001600160a01b031633146102e15760405162461bcd60e51b815260206004820181905260248201527f4f776e61626c653a2063616c6c6572206973206e6f7420746865206f776e65726044820152606401610302565b600080546001600160a01b038381166001600160a01b0319831681178455604051919092169283917f8be0079c531659141344cd1fd0a4f28419497f9722a3daafe3b4186f6b6457e09190a35050565b6000806000610ced8585610d04565b91509150610cfa81610d49565b5090505b92915050565b6000808251604103610d3a5760208301516040840151606085015160001a610d2e87828585610eff565b94509450505050610d42565b506000905060025b9250929050565b6000816004811115610d5d57610d5d61137d565b03610d655750565b6001816004811115610d7957610d7961137d565b03610dc65760405162461bcd60e51b815260206004820152601860248201527f45434453413a20696e76616c6964207369676e617475726500000000000000006044820152606401610302565b6002816004811115610dda57610dda61137d565b03610e275760405162461bcd60e51b815260206004820152601f60248201527f45434453413a20696e76616c6964207369676e6174757265206c656e677468006044820152606401610302565b6003816004811115610e3b57610e3b61137d565b03610e935760405162461bcd60e51b815260206004820152602260248201527f45434453413a20696e76616c6964207369676e6174757265202773272076616c604482015261756560f01b6064820152608401610302565b6004816004811115610ea757610ea761137d565b03610bdd5760405162461bcd60e51b815260206004820152602260248201527f45434453413a20696e76616c6964207369676e6174757265202776272076616c604482015261756560f01b6064820152608401610302565b6000807f7fffffffffffffffffffffffffffffff5d576e7357a4501ddfe92f46681b20a0831115610f365750600090506003610fe3565b8460ff16601b14158015610f4e57508460ff16601c14155b15610f5f5750600090506004610fe3565b6040805160008082526020820180845289905260ff881692820192909252606081018690526080810185905260019060a0016020604051602081039080840390855afa158015610fb3573d6000803e3d6000fd5b5050604051601f1901519150506001600160a01b038116610fdc57600060019250925050610fe3565b9150600090505b94509492505050565b600060208284031215610ffe57600080fd5b5035919050565b80356001600160a01b038116811461101c57600080fd5b919050565b60008060006060848603121561103657600080fd5b61103f84611005565b95602085013595506040909401359392505050565b634e487b7160e01b600052604160045260246000fd5b600082601f83011261107b57600080fd5b813567ffffffffffffffff8082111561109657611096611054565b604051601f8301601f19908116603f011681019082821181831017156110be576110be611054565b816040528381528660208588010111156110d757600080fd5b836020870160208301376000602085830101528094505050505092915050565b60008060006060848603121561110c57600080fd5b83359250602084013567ffffffffffffffff8082111561112b57600080fd5b6111378783880161106a565b9350604086013591508082111561114d57600080fd5b5061115a8682870161106a565b9150509250925092565b60008083601f84011261117657600080fd5b50813567ffffffffffffffff81111561118e57600080fd5b6020830191508360208260051b8501011115610d4257600080fd5b6000806000806000606086880312156111c157600080fd5b853567ffffffffffffffff808211156111d957600080fd5b6111e589838a01611164565b909750955060208801359150808211156111fe57600080fd5b5061120b88828901611164565b96999598509660400135949350505050565b60006020828403121561122f57600080fd5b61123882611005565b9392505050565b6020808252601d908201527f496d7072657373696f6e5374616b653a206d7573742075736520454f41000000604082015260600190565b60006020828403121561128857600080fd5b8151801515811461123857600080fd5b838152600060206bffffffffffffffffffffffff198560601b1681840152835160005b818110156112d7578581018301518582016034015282016112bb565b50600093016034019283525090949350505050565b634e487b7160e01b600052601160045260246000fd5b81810381811115610cfe57610cfe6112ec565b8082028115828204841417610cfe57610cfe6112ec565b60008261134957634e487b7160e01b600052601260045260246000fd5b500490565b634e487b7160e01b600052603260045260246000fd5b600060018201611376576113766112ec565b5060010190565b634e487b7160e01b600052602160045260246000fdfea2646970667358221220ab0300aa2853e902d2fd35bbcf7e667bbab77b41c673434e1e7aeb5da6d2837264736f6c63430008110033",
  "devdoc": {
    "kind": "dev",
    "methods": {
      "owner()": {
        "details": "Returns the address of the current owner."
      },
      "renounceOwnership()": {
        "details": "Leaves the contract without owner. It will not be possible to call `onlyOwner` functions anymore. Can only be called by the current owner. NOTE: Renouncing ownership will leave the contract without an owner, thereby removing any functionality that is only available to the owner."
      },
      "transferOwnership(address)": {
        "details": "Transfers ownership of the contract to a new account (`newOwner`). Can only be called by the current owner."
      }
    },
    "version": 1
  },
  "userdoc": {
    "kind": "user",
    "methods": {
      "setCharity(address)": {
        "notice": "Sets the charity fund address"
      }
    },
    "version": 1
  },
  "storageLayout": {
    "storage": [
      {
        "astId": 7,
        "contract": "contracts/ImpressionStake.sol:ImpressionStake",
        "label": "_owner",
        "offset": 0,
        "slot": "0",
        "type": "t_address"
      },
      {
        "astId": 841,
        "contract": "contracts/ImpressionStake.sol:ImpressionStake",
        "label": "whitelistSignerAddress",
        "offset": 0,
        "slot": "1",
        "type": "t_address"
      },
      {
        "astId": 844,
        "contract": "contracts/ImpressionStake.sol:ImpressionStake",
        "label": "impressionTokenAddress",
        "offset": 0,
        "slot": "2",
        "type": "t_contract(IERC20)190"
      },
      {
        "astId": 846,
        "contract": "contracts/ImpressionStake.sol:ImpressionStake",
        "label": "charityFund",
        "offset": 0,
        "slot": "3",
        "type": "t_address"
      },
      {
        "astId": 848,
        "contract": "contracts/ImpressionStake.sol:ImpressionStake",
        "label": "requestId",
        "offset": 0,
        "slot": "4",
        "type": "t_uint256"
      },
      {
        "astId": 850,
        "contract": "contracts/ImpressionStake.sol:ImpressionStake",
        "label": "charityParam",
        "offset": 0,
        "slot": "5",
        "type": "t_uint256"
      },
      {
        "astId": 862,
        "contract": "contracts/ImpressionStake.sol:ImpressionStake",
        "label": "messageRequests",
        "offset": 0,
        "slot": "6",
        "type": "t_mapping(t_uint256,t_struct(MessageRequest)857_storage)"
      },
      {
        "astId": 866,
        "contract": "contracts/ImpressionStake.sol:ImpressionStake",
        "label": "userCost",
        "offset": 0,
        "slot": "7",
        "type": "t_mapping(t_address,t_uint256)"
      }
    ],
    "types": {
      "t_address": {
        "encoding": "inplace",
        "label": "address",
        "numberOfBytes": "20"
      },
      "t_contract(IERC20)190": {
        "encoding": "inplace",
        "label": "contract IERC20",
        "numberOfBytes": "20"
      },
      "t_mapping(t_address,t_uint256)": {
        "encoding": "mapping",
        "key": "t_address",
        "label": "mapping(address => uint256)",
        "numberOfBytes": "32",
        "value": "t_uint256"
      },
      "t_mapping(t_uint256,t_struct(MessageRequest)857_storage)": {
        "encoding": "mapping",
        "key": "t_uint256",
        "label": "mapping(uint256 => struct ImpressionStake.MessageRequest)",
        "numberOfBytes": "32",
        "value": "t_struct(MessageRequest)857_storage"
      },
      "t_struct(MessageRequest)857_storage": {
        "encoding": "inplace",
        "label": "struct ImpressionStake.MessageRequest",
        "members": [
          {
            "astId": 852,
            "contract": "contracts/ImpressionStake.sol:ImpressionStake",
            "label": "from",
            "offset": 0,
            "slot": "0",
            "type": "t_address"
          },
          {
            "astId": 854,
            "contract": "contracts/ImpressionStake.sol:ImpressionStake",
            "label": "to",
            "offset": 0,
            "slot": "1",
            "type": "t_address"
          },
          {
            "astId": 856,
            "contract": "contracts/ImpressionStake.sol:ImpressionStake",
            "label": "amount",
            "offset": 0,
            "slot": "2",
            "type": "t_uint256"
          }
        ],
        "numberOfBytes": "96"
      },
      "t_uint256": {
        "encoding": "inplace",
        "label": "uint256",
        "numberOfBytes": "32"
      }
    }
  }
}