{
  "address": "0x250Af4E4d69dE7bf6f0d33E7C3C465F91c704505",
  "abi": [
    {
      "inputs": [
        {
          "internalType": "address",
          "name": "_owner",
          "type": "address"
        },
        {
          "internalType": "address",
          "name": "_charity",
          "type": "address"
        },
        {
          "internalType": "address",
          "name": "_whitelistSignerAddress",
          "type": "address"
        },
        {
          "internalType": "address",
          "name": "_impressionTokenAddress",
          "type": "address"
        }
      ],
      "stateMutability": "nonpayable",
      "type": "constructor"
    },
    {
      "anonymous": false,
      "inputs": [
        {
          "indexed": true,
          "internalType": "uint256",
          "name": "requestId",
          "type": "uint256"
        },
        {
          "indexed": true,
          "internalType": "address",
          "name": "from",
          "type": "address"
        },
        {
          "indexed": true,
          "internalType": "address",
          "name": "to",
          "type": "address"
        },
        {
          "indexed": false,
          "internalType": "uint256",
          "name": "amount",
          "type": "uint256"
        }
      ],
      "name": "MessageRequestCreated",
      "type": "event"
    },
    {
      "anonymous": false,
      "inputs": [
        {
          "indexed": true,
          "internalType": "address",
          "name": "previousOwner",
          "type": "address"
        },
        {
          "indexed": true,
          "internalType": "address",
          "name": "newOwner",
          "type": "address"
        }
      ],
      "name": "OwnershipTransferred",
      "type": "event"
    },
    {
      "inputs": [
        {
          "internalType": "address[]",
          "name": "_to",
          "type": "address[]"
        },
        {
          "internalType": "uint256[]",
          "name": "_amount",
          "type": "uint256[]"
        }
      ],
      "name": "batchRequestMessage",
      "outputs": [],
      "stateMutability": "nonpayable",
      "type": "function"
    },
    {
      "inputs": [],
      "name": "charityFund",
      "outputs": [
        {
          "internalType": "address",
          "name": "",
          "type": "address"
        }
      ],
      "stateMutability": "view",
      "type": "function"
    },
    {
      "inputs": [],
      "name": "charityParam",
      "outputs": [
        {
          "internalType": "uint256",
          "name": "",
          "type": "uint256"
        }
      ],
      "stateMutability": "view",
      "type": "function"
    },
    {
      "inputs": [
        {
          "internalType": "uint256",
          "name": "_requestId",
          "type": "uint256"
        },
        {
          "internalType": "bytes",
          "name": "_signature",
          "type": "bytes"
        },
        {
          "internalType": "bytes",
          "name": "_messageHash",
          "type": "bytes"
        }
      ],
      "name": "claimMessage",
      "outputs": [],
      "stateMutability": "nonpayable",
      "type": "function"
    },
    {
      "inputs": [
        {
          "internalType": "uint256",
          "name": "_requestId",
          "type": "uint256"
        }
      ],
      "name": "getMessageRequest",
      "outputs": [
        {
          "components": [
            {
              "internalType": "address",
              "name": "from",
              "type": "address"
            },
            {
              "internalType": "address",
              "name": "to",
              "type": "address"
            },
            {
              "internalType": "uint256",
              "name": "amount",
              "type": "uint256"
            }
          ],
          "internalType": "struct ImpressionStake.MessageRequest",
          "name": "",
          "type": "tuple"
        }
      ],
      "stateMutability": "view",
      "type": "function"
    },
    {
      "inputs": [],
      "name": "impressionTokenAddress",
      "outputs": [
        {
          "internalType": "contract IERC20",
          "name": "",
          "type": "address"
        }
      ],
      "stateMutability": "view",
      "type": "function"
    },
    {
      "inputs": [],
      "name": "owner",
      "outputs": [
        {
          "internalType": "address",
          "name": "",
          "type": "address"
        }
      ],
      "stateMutability": "view",
      "type": "function"
    },
    {
      "inputs": [],
      "name": "renounceOwnership",
      "outputs": [],
      "stateMutability": "nonpayable",
      "type": "function"
    },
    {
      "inputs": [],
      "name": "requestId",
      "outputs": [
        {
          "internalType": "uint256",
          "name": "",
          "type": "uint256"
        }
      ],
      "stateMutability": "view",
      "type": "function"
    },
    {
      "inputs": [
        {
          "internalType": "address",
          "name": "_to",
          "type": "address"
        },
        {
          "internalType": "uint256",
          "name": "_amount",
          "type": "uint256"
        }
      ],
      "name": "requestMessage",
      "outputs": [],
      "stateMutability": "nonpayable",
      "type": "function"
    },
    {
      "inputs": [
        {
          "internalType": "address",
          "name": "_charityFund",
          "type": "address"
        }
      ],
      "name": "setCharity",
      "outputs": [],
      "stateMutability": "nonpayable",
      "type": "function"
    },
    {
      "inputs": [
        {
          "internalType": "uint256",
          "name": "_charityParam",
          "type": "uint256"
        }
      ],
      "name": "setCharityParam",
      "outputs": [],
      "stateMutability": "nonpayable",
      "type": "function"
    },
    {
      "inputs": [
        {
          "internalType": "uint256",
          "name": "_cost",
          "type": "uint256"
        }
      ],
      "name": "setUserCost",
      "outputs": [],
      "stateMutability": "nonpayable",
      "type": "function"
    },
    {
      "inputs": [
        {
          "internalType": "address",
          "name": "signer",
          "type": "address"
        }
      ],
      "name": "setWhitelistSignerAddress",
      "outputs": [],
      "stateMutability": "nonpayable",
      "type": "function"
    },
    {
      "inputs": [
        {
          "internalType": "address",
          "name": "newOwner",
          "type": "address"
        }
      ],
      "name": "transferOwnership",
      "outputs": [],
      "stateMutability": "nonpayable",
      "type": "function"
    },
    {
      "inputs": [
        {
          "internalType": "address",
          "name": "",
          "type": "address"
        }
      ],
      "name": "userCost",
      "outputs": [
        {
          "internalType": "uint256",
          "name": "",
          "type": "uint256"
        }
      ],
      "stateMutability": "view",
      "type": "function"
    }
  ],
  "transactionHash": "0x014d42a6a46987d5b23d58b02074b1822611aed39a0161e0f86a148b08270632",
  "args": [
    "0x71AF39b5ec816eF4853952f42C60bCf8DD99C8CE",
    "0x43F7D84e346584621AeD8eCE27C7ccd1659665E6",
    "0xF25f9E09344DCeC110addF1603b6c9e650883af5",
    "0xb1151AAC9eA4F4151779a57e030119bbE3E0D5d1"
  ],
  "numDeployments": 1,
  "solcInputHash": "0d910a43730dfac38f14af2a3bff4ae5",
  "bytecode": "0x60806040523480156200001157600080fd5b506040516200168d3803806200168d83398101604081905262000034916200022b565b6200003f3362000085565b600280546001600160a01b0319166001600160a01b0383161790556200006583620000d5565b620000708262000101565b6200007b846200012d565b5050505062000288565b600080546001600160a01b038381166001600160a01b0319831681178455604051919092169283917f8be0079c531659141344cd1fd0a4f28419497f9722a3daafe3b4186f6b6457e09190a35050565b620000df620001b0565b600380546001600160a01b0319166001600160a01b0392909216919091179055565b6200010b620001b0565b600180546001600160a01b0319166001600160a01b0392909216919091179055565b62000137620001b0565b6001600160a01b038116620001a25760405162461bcd60e51b815260206004820152602660248201527f4f776e61626c653a206e6577206f776e657220697320746865207a65726f206160448201526564647265737360d01b60648201526084015b60405180910390fd5b620001ad8162000085565b50565b6000546001600160a01b031633146200020c5760405162461bcd60e51b815260206004820181905260248201527f4f776e61626c653a2063616c6c6572206973206e6f7420746865206f776e6572604482015260640162000199565b565b80516001600160a01b03811681146200022657600080fd5b919050565b600080600080608085870312156200024257600080fd5b6200024d856200020e565b93506200025d602086016200020e565b92506200026d604086016200020e565b91506200027d606086016200020e565b905092959194509250565b6113f580620002986000396000f3fe608060405234801561001057600080fd5b50600436106100ff5760003560e01c80639abb86fd11610097578063d86736a011610066578063d86736a014610283578063f2fde38b14610296578063f504764d146102a9578063fb6f71a3146102bc57600080fd5b80639abb86fd1461022a578063b1f214391461023d578063bd74795014610250578063c47a03a01461026357600080fd5b8063591f19f5116100d3578063591f19f5146101d3578063715018a6146101fe57806377e1a9fc146102065780638da5cb5b1461021957600080fd5b80626d6cae1461010457806305d43f8a146101205780633494fb63146101295780633abc3fe0146101be575b600080fd5b61010d60045481565b6040519081526020015b60405180910390f35b61010d60055481565b61018e61013736600461100d565b60408051606080820183526000808352602080840182905292840181905293845260068252928290208251938401835280546001600160a01b03908116855260018201541691840191909152600201549082015290565b6040805182516001600160a01b039081168252602080850151909116908201529181015190820152606001610117565b6101d16101cc366004611042565b6102cf565b005b6002546101e6906001600160a01b031681565b6040516001600160a01b039091168152602001610117565b6101d16105d7565b6003546101e6906001600160a01b031681565b6000546001600160a01b03166101e6565b6101d161023836600461110f565b6105eb565b6101d161024b36600461100d565b610994565b6101d161025e36600461100d565b610a00565b61010d61027136600461117c565b60076020526000908152604090205481565b6101d16102913660046111e3565b610a84565b6101d16102a436600461117c565b610b84565b6101d16102b736600461117c565b610bfd565b6101d16102ca36600461117c565b610c27565b3332146102f75760405162461bcd60e51b81526004016102ee9061124f565b60405180910390fd5b6001600160a01b03821661035d5760405162461bcd60e51b815260206004820152602760248201527f496d7072657373696f6e5374616b653a20746f20616464726573732063616e6e60448201526606f7420626520360cc1b60648201526084016102ee565b6001600160a01b0382166000908152600760205260409020546103dc5760405162461bcd60e51b815260206004820152603160248201527f496d7072657373696f6e5374616b653a207573657220636f7374206d75737420604482015270062652067726561746572207468616e203607c1b60648201526084016102ee565b6001600160a01b03821660009081526007602052604090205481101561046a5760405162461bcd60e51b815260206004820152603a60248201527f496d7072657373696f6e5374616b653a20616d6f756e74206d7573742062652060448201527f67726561746572207468616e20726563656976657220636f737400000000000060648201526084016102ee565b6040516bffffffffffffffffffffffff19606084901b1660208201526034810182905242605482015260009060740160408051601f198184030181528282528051602091820120606084018352338085526001600160a01b038881168487019081528686018981526000858152600690965294869020965187549083166001600160a01b03199182161788559051600188018054918416919092161790559251600295860155935492516323b872dd60e01b8152600481019490945230602485015260448401869052935016906323b872dd906064016020604051808303816000875af115801561055f573d6000803e3d6000fd5b505050506040513d601f19601f820116820180604052508101906105839190611286565b50826001600160a01b0316336001600160a01b0316827f3127cf92830116f5b2ae6f393af2ba19c7cd2df789641f2c9cc676eed6e53ba1856040516105ca91815260200190565b60405180910390a4505050565b6105df610c51565b6105e96000610cab565b565b33321461060a5760405162461bcd60e51b81526004016102ee9061124f565b600083815260066020908152604091829020825160608101845281546001600160a01b039081168252600183015416928101839052600290910154928101929092526106b05760405162461bcd60e51b815260206004820152602f60248201527f496d7072657373696f6e5374616b653a206d657373616765207265717565737460448201526e08191bd95cc81b9bdd08195e1a5cdd608a1b60648201526084016102ee565b600081604001511161071d5760405162461bcd60e51b815260206004820152603060248201527f496d7072657373696f6e5374616b653a206d657373616765207265717565737460448201526f08185b1c9958591e4818db185a5b595960821b60648201526084016102ee565b600084826020015184604051602001610738939291906112a8565b60405160208183030381529060405280519060200120905060006107b3856107ad846040517f19457468657265756d205369676e6564204d6573736167653a0a3332000000006020820152603c8101829052600090605c01604051602081830303815290604052805190602001209050919050565b90610cfb565b6001549091506001600160a01b0380831691161461081e5760405162461bcd60e51b815260206004820152602260248201527f496d7072657373696f6e5374616b653a20696e76616c6964207369676e617475604482015261726560f01b60648201526084016102ee565b60025460208401516005546001600160a01b039092169163a9059cbb91906064906108499082611320565b87604001516108589190611337565b6108629190611356565b6040516001600160e01b031960e085901b1681526001600160a01b03909216600483015260248201526044016020604051808303816000875af11580156108ad573d6000803e3d6000fd5b505050506040513d601f19601f820116820180604052508101906108d19190611286565b5060025460035460055460408601516001600160a01b039384169363a9059cbb9316916064916109019190611337565b61090b9190611356565b6040516001600160e01b031960e085901b1681526001600160a01b03909216600483015260248201526044016020604051808303816000875af1158015610956573d6000803e3d6000fd5b505050506040513d601f19601f8201168201806040525081019061097a9190611286565b505050600093845250506006602052506040812060020155565b600081116109ee5760405162461bcd60e51b815260206004820152602160248201527f496d7072657373696f6e5374616b653a20636f73742063616e6e6f74206265206044820152600360fc1b60648201526084016102ee565b33600090815260076020526040902055565b610a08610c51565b6064811115610a7f5760405162461bcd60e51b815260206004820152603960248201527f496d7072657373696f6e5374616b653a206368617269747920706172616d206360448201527f616e6e6f742062652067726561746572207468616e203130300000000000000060648201526084016102ee565b600555565b333214610aa35760405162461bcd60e51b81526004016102ee9061124f565b828114610b185760405162461bcd60e51b815260206004820152603d60248201527f496d7072657373696f6e5374616b653a20746f20616e6420616d6f756e74206160448201527f7272617973206d757374206265207468652073616d65206c656e67746800000060648201526084016102ee565b60005b83811015610b7d57610b6b858583818110610b3857610b38611378565b9050602002016020810190610b4d919061117c565b848484818110610b5f57610b5f611378565b905060200201356102cf565b80610b758161138e565b915050610b1b565b5050505050565b610b8c610c51565b6001600160a01b038116610bf15760405162461bcd60e51b815260206004820152602660248201527f4f776e61626c653a206e6577206f776e657220697320746865207a65726f206160448201526564647265737360d01b60648201526084016102ee565b610bfa81610cab565b50565b610c05610c51565b600180546001600160a01b0319166001600160a01b0392909216919091179055565b610c2f610c51565b600380546001600160a01b0319166001600160a01b0392909216919091179055565b6000546001600160a01b031633146105e95760405162461bcd60e51b815260206004820181905260248201527f4f776e61626c653a2063616c6c6572206973206e6f7420746865206f776e657260448201526064016102ee565b600080546001600160a01b038381166001600160a01b0319831681178455604051919092169283917f8be0079c531659141344cd1fd0a4f28419497f9722a3daafe3b4186f6b6457e09190a35050565b6000806000610d0a8585610d1f565b91509150610d1781610d65565b509392505050565b600080825160411415610d565760208301516040840151606085015160001a610d4a87828585610f20565b94509450505050610d5e565b506000905060025b9250929050565b6000816004811115610d7957610d796113a9565b1415610d825750565b6001816004811115610d9657610d966113a9565b1415610de45760405162461bcd60e51b815260206004820152601860248201527f45434453413a20696e76616c6964207369676e6174757265000000000000000060448201526064016102ee565b6002816004811115610df857610df86113a9565b1415610e465760405162461bcd60e51b815260206004820152601f60248201527f45434453413a20696e76616c6964207369676e6174757265206c656e6774680060448201526064016102ee565b6003816004811115610e5a57610e5a6113a9565b1415610eb35760405162461bcd60e51b815260206004820152602260248201527f45434453413a20696e76616c6964207369676e6174757265202773272076616c604482015261756560f01b60648201526084016102ee565b6004816004811115610ec757610ec76113a9565b1415610bfa5760405162461bcd60e51b815260206004820152602260248201527f45434453413a20696e76616c6964207369676e6174757265202776272076616c604482015261756560f01b60648201526084016102ee565b6000807f7fffffffffffffffffffffffffffffff5d576e7357a4501ddfe92f46681b20a0831115610f575750600090506003611004565b8460ff16601b14158015610f6f57508460ff16601c14155b15610f805750600090506004611004565b6040805160008082526020820180845289905260ff881692820192909252606081018690526080810185905260019060a0016020604051602081039080840390855afa158015610fd4573d6000803e3d6000fd5b5050604051601f1901519150506001600160a01b038116610ffd57600060019250925050611004565b9150600090505b94509492505050565b60006020828403121561101f57600080fd5b5035919050565b80356001600160a01b038116811461103d57600080fd5b919050565b6000806040838503121561105557600080fd5b61105e83611026565b946020939093013593505050565b634e487b7160e01b600052604160045260246000fd5b600082601f83011261109357600080fd5b813567ffffffffffffffff808211156110ae576110ae61106c565b604051601f8301601f19908116603f011681019082821181831017156110d6576110d661106c565b816040528381528660208588010111156110ef57600080fd5b836020870160208301376000602085830101528094505050505092915050565b60008060006060848603121561112457600080fd5b83359250602084013567ffffffffffffffff8082111561114357600080fd5b61114f87838801611082565b9350604086013591508082111561116557600080fd5b5061117286828701611082565b9150509250925092565b60006020828403121561118e57600080fd5b61119782611026565b9392505050565b60008083601f8401126111b057600080fd5b50813567ffffffffffffffff8111156111c857600080fd5b6020830191508360208260051b8501011115610d5e57600080fd5b600080600080604085870312156111f957600080fd5b843567ffffffffffffffff8082111561121157600080fd5b61121d8883890161119e565b9096509450602087013591508082111561123657600080fd5b506112438782880161119e565b95989497509550505050565b6020808252601d908201527f496d7072657373696f6e5374616b653a206d7573742075736520454f41000000604082015260600190565b60006020828403121561129857600080fd5b8151801515811461119757600080fd5b838152600060206bffffffffffffffffffffffff198560601b1681840152835160005b818110156112e7578581018301518582016034015282016112cb565b818111156112f9576000603483870101525b509290920160340195945050505050565b634e487b7160e01b600052601160045260246000fd5b6000828210156113325761133261130a565b500390565b60008160001904831182151516156113515761135161130a565b500290565b60008261137357634e487b7160e01b600052601260045260246000fd5b500490565b634e487b7160e01b600052603260045260246000fd5b60006000198214156113a2576113a261130a565b5060010190565b634e487b7160e01b600052602160045260246000fdfea2646970667358221220bc282dc8ba03e499900d3c3ada2f8bcbf7a75b31a14e2655416bdd9d6976145064736f6c634300080b0033",
  "devdoc": {
    "kind": "dev",
    "methods": {
      "owner()": {
        "details": "Returns the address of the current owner."
      },
      "renounceOwnership()": {
        "details": "Leaves the contract without owner. It will not be possible to call `onlyOwner` functions anymore. Can only be called by the current owner. NOTE: Renouncing ownership will leave the contract without an owner, thereby removing any functionality that is only available to the owner."
      },
      "transferOwnership(address)": {
        "details": "Transfers ownership of the contract to a new account (`newOwner`). Can only be called by the current owner."
      }
    },
    "version": 1
  },
  "userdoc": {
    "kind": "user",
    "methods": {
      "setCharity(address)": {
        "notice": "Sets the charity fund address"
      }
    },
    "version": 1
  },
  "storageLayout": {
    "storage": [
      {
        "astId": 7,
        "contract": "contracts/ImpressionStake.sol:ImpressionStake",
        "label": "_owner",
        "offset": 0,
        "slot": "0",
        "type": "t_address"
      },
      {
        "astId": 1498,
        "contract": "contracts/ImpressionStake.sol:ImpressionStake",
        "label": "whitelistSignerAddress",
        "offset": 0,
        "slot": "1",
        "type": "t_address"
      },
      {
        "astId": 1501,
        "contract": "contracts/ImpressionStake.sol:ImpressionStake",
        "label": "impressionTokenAddress",
        "offset": 0,
        "slot": "2",
        "type": "t_contract(IERC20)776"
      },
      {
        "astId": 1503,
        "contract": "contracts/ImpressionStake.sol:ImpressionStake",
        "label": "charityFund",
        "offset": 0,
        "slot": "3",
        "type": "t_address"
      },
      {
        "astId": 1505,
        "contract": "contracts/ImpressionStake.sol:ImpressionStake",
        "label": "requestId",
        "offset": 0,
        "slot": "4",
        "type": "t_uint256"
      },
      {
        "astId": 1507,
        "contract": "contracts/ImpressionStake.sol:ImpressionStake",
        "label": "charityParam",
        "offset": 0,
        "slot": "5",
        "type": "t_uint256"
      },
      {
        "astId": 1519,
        "contract": "contracts/ImpressionStake.sol:ImpressionStake",
        "label": "messageRequests",
        "offset": 0,
        "slot": "6",
        "type": "t_mapping(t_uint256,t_struct(MessageRequest)1514_storage)"
      },
      {
        "astId": 1523,
        "contract": "contracts/ImpressionStake.sol:ImpressionStake",
        "label": "userCost",
        "offset": 0,
        "slot": "7",
        "type": "t_mapping(t_address,t_uint256)"
      }
    ],
    "types": {
      "t_address": {
        "encoding": "inplace",
        "label": "address",
        "numberOfBytes": "20"
      },
      "t_contract(IERC20)776": {
        "encoding": "inplace",
        "label": "contract IERC20",
        "numberOfBytes": "20"
      },
      "t_mapping(t_address,t_uint256)": {
        "encoding": "mapping",
        "key": "t_address",
        "label": "mapping(address => uint256)",
        "numberOfBytes": "32",
        "value": "t_uint256"
      },
      "t_mapping(t_uint256,t_struct(MessageRequest)1514_storage)": {
        "encoding": "mapping",
        "key": "t_uint256",
        "label": "mapping(uint256 => struct ImpressionStake.MessageRequest)",
        "numberOfBytes": "32",
        "value": "t_struct(MessageRequest)1514_storage"
      },
      "t_struct(MessageRequest)1514_storage": {
        "encoding": "inplace",
        "label": "struct ImpressionStake.MessageRequest",
        "members": [
          {
            "astId": 1509,
            "contract": "contracts/ImpressionStake.sol:ImpressionStake",
            "label": "from",
            "offset": 0,
            "slot": "0",
            "type": "t_address"
          },
          {
            "astId": 1511,
            "contract": "contracts/ImpressionStake.sol:ImpressionStake",
            "label": "to",
            "offset": 0,
            "slot": "1",
            "type": "t_address"
          },
          {
            "astId": 1513,
            "contract": "contracts/ImpressionStake.sol:ImpressionStake",
            "label": "amount",
            "offset": 0,
            "slot": "2",
            "type": "t_uint256"
          }
        ],
        "numberOfBytes": "96"
      },
      "t_uint256": {
        "encoding": "inplace",
        "label": "uint256",
        "numberOfBytes": "32"
      }
    }
  }
}